{
  "_format": "hh-sol-artifact-1",
  "contractName": "MyEpicNFT",
  "sourceName": "contracts/MyEpicNFT.sol",
  "abi": [
    {
      "inputs": [],
      "stateMutability": "nonpayable",
      "type": "constructor"
    },
    {
      "anonymous": false,
      "inputs": [
        {
          "indexed": true,
          "internalType": "address",
          "name": "owner",
          "type": "address"
        },
        {
          "indexed": true,
          "internalType": "address",
          "name": "approved",
          "type": "address"
        },
        {
          "indexed": true,
          "internalType": "uint256",
          "name": "tokenId",
          "type": "uint256"
        }
      ],
      "name": "Approval",
      "type": "event"
    },
    {
      "anonymous": false,
      "inputs": [
        {
          "indexed": true,
          "internalType": "address",
          "name": "owner",
          "type": "address"
        },
        {
          "indexed": true,
          "internalType": "address",
          "name": "operator",
          "type": "address"
        },
        {
          "indexed": false,
          "internalType": "bool",
          "name": "approved",
          "type": "bool"
        }
      ],
      "name": "ApprovalForAll",
      "type": "event"
    },
    {
      "anonymous": false,
      "inputs": [
        {
          "indexed": false,
          "internalType": "address",
          "name": "sender",
          "type": "address"
        },
        {
          "indexed": false,
          "internalType": "uint256",
          "name": "tokenId",
          "type": "uint256"
        }
      ],
      "name": "NewEpicNFTMinted",
      "type": "event"
    },
    {
      "anonymous": false,
      "inputs": [
        {
          "indexed": true,
          "internalType": "address",
          "name": "from",
          "type": "address"
        },
        {
          "indexed": true,
          "internalType": "address",
          "name": "to",
          "type": "address"
        },
        {
          "indexed": true,
          "internalType": "uint256",
          "name": "tokenId",
          "type": "uint256"
        }
      ],
      "name": "Transfer",
      "type": "event"
    },
    {
      "inputs": [
        {
          "internalType": "address",
          "name": "to",
          "type": "address"
        },
        {
          "internalType": "uint256",
          "name": "tokenId",
          "type": "uint256"
        }
      ],
      "name": "approve",
      "outputs": [],
      "stateMutability": "nonpayable",
      "type": "function"
    },
    {
      "inputs": [
        {
          "internalType": "address",
          "name": "owner",
          "type": "address"
        }
      ],
      "name": "balanceOf",
      "outputs": [
        {
          "internalType": "uint256",
          "name": "",
          "type": "uint256"
        }
      ],
      "stateMutability": "view",
      "type": "function"
    },
    {
      "inputs": [
        {
          "internalType": "uint256",
          "name": "tokenId",
          "type": "uint256"
        }
      ],
      "name": "getApproved",
      "outputs": [
        {
          "internalType": "address",
          "name": "",
          "type": "address"
        }
      ],
      "stateMutability": "view",
      "type": "function"
    },
    {
      "inputs": [],
      "name": "getTotalNFTsMintedSoFar",
      "outputs": [
        {
          "internalType": "uint256",
          "name": "",
          "type": "uint256"
        }
      ],
      "stateMutability": "view",
      "type": "function"
    },
    {
      "inputs": [
        {
          "internalType": "address",
          "name": "owner",
          "type": "address"
        },
        {
          "internalType": "address",
          "name": "operator",
          "type": "address"
        }
      ],
      "name": "isApprovedForAll",
      "outputs": [
        {
          "internalType": "bool",
          "name": "",
          "type": "bool"
        }
      ],
      "stateMutability": "view",
      "type": "function"
    },
    {
      "inputs": [
        {
          "internalType": "address",
          "name": "",
          "type": "address"
        }
      ],
      "name": "lastMintedAt",
      "outputs": [
        {
          "internalType": "uint256",
          "name": "",
          "type": "uint256"
        }
      ],
      "stateMutability": "view",
      "type": "function"
    },
    {
      "inputs": [],
      "name": "makeAnEpicNFT",
      "outputs": [],
      "stateMutability": "nonpayable",
      "type": "function"
    },
    {
      "inputs": [],
      "name": "name",
      "outputs": [
        {
          "internalType": "string",
          "name": "",
          "type": "string"
        }
      ],
      "stateMutability": "view",
      "type": "function"
    },
    {
      "inputs": [
        {
          "internalType": "uint256",
          "name": "tokenId",
          "type": "uint256"
        }
      ],
      "name": "ownerOf",
      "outputs": [
        {
          "internalType": "address",
          "name": "",
          "type": "address"
        }
      ],
      "stateMutability": "view",
      "type": "function"
    },
    {
      "inputs": [
        {
          "internalType": "uint256",
          "name": "tokenId",
          "type": "uint256"
        }
      ],
      "name": "pickRandomFirstWord",
      "outputs": [
        {
          "internalType": "string",
          "name": "",
          "type": "string"
        }
      ],
      "stateMutability": "view",
      "type": "function"
    },
    {
      "inputs": [
        {
          "internalType": "uint256",
          "name": "tokenId",
          "type": "uint256"
        }
      ],
      "name": "pickRandomSecondWord",
      "outputs": [
        {
          "internalType": "string",
          "name": "",
          "type": "string"
        }
      ],
      "stateMutability": "view",
      "type": "function"
    },
    {
      "inputs": [
        {
          "internalType": "uint256",
          "name": "tokenId",
          "type": "uint256"
        }
      ],
      "name": "pickRandomThirdWord",
      "outputs": [
        {
          "internalType": "string",
          "name": "",
          "type": "string"
        }
      ],
      "stateMutability": "view",
      "type": "function"
    },
    {
      "inputs": [
        {
          "internalType": "address",
          "name": "from",
          "type": "address"
        },
        {
          "internalType": "address",
          "name": "to",
          "type": "address"
        },
        {
          "internalType": "uint256",
          "name": "tokenId",
          "type": "uint256"
        }
      ],
      "name": "safeTransferFrom",
      "outputs": [],
      "stateMutability": "nonpayable",
      "type": "function"
    },
    {
      "inputs": [
        {
          "internalType": "address",
          "name": "from",
          "type": "address"
        },
        {
          "internalType": "address",
          "name": "to",
          "type": "address"
        },
        {
          "internalType": "uint256",
          "name": "tokenId",
          "type": "uint256"
        },
        {
          "internalType": "bytes",
          "name": "_data",
          "type": "bytes"
        }
      ],
      "name": "safeTransferFrom",
      "outputs": [],
      "stateMutability": "nonpayable",
      "type": "function"
    },
    {
      "inputs": [
        {
          "internalType": "address",
          "name": "operator",
          "type": "address"
        },
        {
          "internalType": "bool",
          "name": "approved",
          "type": "bool"
        }
      ],
      "name": "setApprovalForAll",
      "outputs": [],
      "stateMutability": "nonpayable",
      "type": "function"
    },
    {
      "inputs": [
        {
          "internalType": "bytes4",
          "name": "interfaceId",
          "type": "bytes4"
        }
      ],
      "name": "supportsInterface",
      "outputs": [
        {
          "internalType": "bool",
          "name": "",
          "type": "bool"
        }
      ],
      "stateMutability": "view",
      "type": "function"
    },
    {
      "inputs": [],
      "name": "symbol",
      "outputs": [
        {
          "internalType": "string",
          "name": "",
          "type": "string"
        }
      ],
      "stateMutability": "view",
      "type": "function"
    },
    {
      "inputs": [
        {
          "internalType": "uint256",
          "name": "tokenId",
          "type": "uint256"
        }
      ],
      "name": "tokenURI",
      "outputs": [
        {
          "internalType": "string",
          "name": "",
          "type": "string"
        }
      ],
      "stateMutability": "view",
      "type": "function"
    },
    {
      "inputs": [
        {
          "internalType": "address",
          "name": "from",
          "type": "address"
        },
        {
          "internalType": "address",
          "name": "to",
          "type": "address"
        },
        {
          "internalType": "uint256",
          "name": "tokenId",
          "type": "uint256"
        }
      ],
      "name": "transferFrom",
      "outputs": [],
      "stateMutability": "nonpayable",
      "type": "function"
    }
  ],
  "bytecode": "0x608060405260405180610160016040528061012f815260200162004bf561012f9139600990805190602001906200003892919062000cba565b50604051806101e001604052806040518060400160405280600781526020017f44656d6f6e69630000000000000000000000000000000000000000000000000081525081526020016040518060400160405280600781526020017f4c756262726c790000000000000000000000000000000000000000000000000081525081526020016040518060400160405280600681526020017f576f6f647379000000000000000000000000000000000000000000000000000081525081526020016040518060400160405280600581526020017f4c756d707900000000000000000000000000000000000000000000000000000081525081526020016040518060400160405280600681526020017f466c75666679000000000000000000000000000000000000000000000000000081525081526020016040518060400160405280600a81526020017f496d70726573736976650000000000000000000000000000000000000000000081525081526020016040518060400160405280600881526020017f4173706972696e6700000000000000000000000000000000000000000000000081525081526020016040518060400160405280600881526020017f527574686c65737300000000000000000000000000000000000000000000000081525081526020016040518060400160405280600881526020017f526f6d616e74696300000000000000000000000000000000000000000000000081525081526020016040518060400160405280600681526020017f576967676c79000000000000000000000000000000000000000000000000000081525081526020016040518060400160405280600681526020017f476966746564000000000000000000000000000000000000000000000000000081525081526020016040518060400160405280600581526020017f4769616e7400000000000000000000000000000000000000000000000000000081525081526020016040518060400160405280600481526020017f457069630000000000000000000000000000000000000000000000000000000081525081526020016040518060400160405280600481526020017f57696c640000000000000000000000000000000000000000000000000000000081525081526020016040518060400160405280600981526020017f50737963686f7469630000000000000000000000000000000000000000000000815250815250600a90600f620003ca92919062000d4b565b50604051806101e001604052806040518060400160405280600a81526020017f486561646368656573650000000000000000000000000000000000000000000081525081526020016040518060400160405280600781526020017f4176616361646f0000000000000000000000000000000000000000000000000081525081526020016040518060400160405280600481526020017f466c616e0000000000000000000000000000000000000000000000000000000081525081526020016040518060400160405280600581526020017f50697a7a6100000000000000000000000000000000000000000000000000000081525081526020016040518060400160405280600681526020017f427572676572000000000000000000000000000000000000000000000000000081525081526020016040518060400160405280600581526020017f467269657300000000000000000000000000000000000000000000000000000081525081526020016040518060400160405280600981526020017f4d696c6b7368616b65000000000000000000000000000000000000000000000081525081526020016040518060400160405280600781526020017f42726f776e69650000000000000000000000000000000000000000000000000081525081526020016040518060400160405280600981526020017f43686f636f6c617465000000000000000000000000000000000000000000000081525081526020016040518060400160405280600481526020017f43616b650000000000000000000000000000000000000000000000000000000081525081526020016040518060400160405280600681526020017f506f7461746f000000000000000000000000000000000000000000000000000081525081526020016040518060400160405280600581526020017f4c6173736900000000000000000000000000000000000000000000000000000081525081526020016040518060400160405280600681526020017f4d7574746f6e000000000000000000000000000000000000000000000000000081525081526020016040518060400160405280600681526020017f4b6172616869000000000000000000000000000000000000000000000000000081525081526020016040518060400160405280600481526020017f4265656600000000000000000000000000000000000000000000000000000000815250815250600b90600f6200075c92919062000d4b565b50604051806101e001604052806040518060400160405280600c81526020017f4f7074696d75735072696d65000000000000000000000000000000000000000081525081526020016040518060400160405280600981526020017f576865656c6a61636b000000000000000000000000000000000000000000000081525081526020016040518060400160405280600981526020017f42756d626c65626565000000000000000000000000000000000000000000000081525081526020016040518060400160405280600b81526020017f436c6966666a756d70657200000000000000000000000000000000000000000081525081526020016040518060400160405280600781526020017f526174636865740000000000000000000000000000000000000000000000000081525081526020016040518060400160405280600881526020017f49726f6e6869646500000000000000000000000000000000000000000000000081525081526020016040518060400160405280600581526020017f486f756e6400000000000000000000000000000000000000000000000000000081525081526020016040518060400160405280600881526020017f4d65676174726f6e00000000000000000000000000000000000000000000000081525081526020016040518060400160405280600781526020017f536b79776172700000000000000000000000000000000000000000000000000081525081526020016040518060400160405280600a81526020017f5374617273637265616d0000000000000000000000000000000000000000000081525081526020016040518060400160405280600981526020017f536f756e6477617665000000000000000000000000000000000000000000000081525081526020016040518060400160405280600981526020017f53686f636b77617665000000000000000000000000000000000000000000000081525081526020016040518060400160405280600b81526020017f426f6e656372757368657200000000000000000000000000000000000000000081525081526020016040518060400160405280600981526020017f53636176656e676572000000000000000000000000000000000000000000000081525081526020016040518060400160405280600681526020017f52616d6a65740000000000000000000000000000000000000000000000000000815250815250600c90600f62000aee92919062000d4b565b5034801562000afc57600080fd5b506040518060400160405280600981526020017f5371756172654e465400000000000000000000000000000000000000000000008152506040518060400160405280600681526020017f5351554152450000000000000000000000000000000000000000000000000000815250816000908051906020019062000b8192919062000cba565b50806001908051906020019062000b9a92919062000cba565b50505062000be86040518060400160405280601e81526020017f54686973206973206d79204e465420636f6e74726163742e20576f616821000081525062000bee60201b620012691760201c565b62000f6c565b62000c8e8160405160240162000c05919062000e80565b6040516020818303038152906040527f41304fac000000000000000000000000000000000000000000000000000000007bffffffffffffffffffffffffffffffffffffffffffffffffffffffff19166020820180517bffffffffffffffffffffffffffffffffffffffffffffffffffffffff838183161783525050505062000c9160201b60201c565b50565b60008151905060006a636f6e736f6c652e6c6f679050602083016000808483855afa5050505050565b82805462000cc89062000ef6565b90600052602060002090601f01602090048101928262000cec576000855562000d38565b82601f1062000d0757805160ff191683800117855562000d38565b8280016001018555821562000d38579182015b8281111562000d3757825182559160200191906001019062000d1a565b5b50905062000d47919062000db2565b5090565b82805482825590600052602060002090810192821562000d9f579160200282015b8281111562000d9e57825182908051906020019062000d8d92919062000cba565b509160200191906001019062000d6c565b5b50905062000dae919062000dd1565b5090565b5b8082111562000dcd57600081600090555060010162000db3565b5090565b5b8082111562000df5576000818162000deb919062000df9565b5060010162000dd2565b5090565b50805462000e079062000ef6565b6000825580601f1062000e1b575062000e3c565b601f01602090049060005260206000209081019062000e3b919062000db2565b5b50565b600062000e4c8262000ea4565b62000e58818562000eaf565b935062000e6a81856020860162000ec0565b62000e758162000f5b565b840191505092915050565b6000602082019050818103600083015262000e9c818462000e3f565b905092915050565b600081519050919050565b600082825260208201905092915050565b60005b8381101562000ee057808201518184015260208101905062000ec3565b8381111562000ef0576000848401525b50505050565b6000600282049050600182168062000f0f57607f821691505b6020821081141562000f265762000f2562000f2c565b5b50919050565b7f4e487b7100000000000000000000000000000000000000000000000000000000600052602260045260246000fd5b6000601f19601f8301169050919050565b613c798062000f7c6000396000f3fe608060405234801561001057600080fd5b50600436106101215760003560e01c80636352211e116100ad578063b88d4fde11610071578063b88d4fde14610340578063c575757a1461035c578063c87b56dd1461038c578063de9d132f146103bc578063e985e9c5146103c657610121565b80636352211e1461027657806370a08231146102a657806395d89b41146102d6578063a22cb465146102f4578063b187301f1461031057610121565b8063095ea7b3116100f4578063095ea7b3146101c25780631dfe5659146101de57806323b872dd1461020e5780632de38d681461022a57806342842e0e1461025a57610121565b806301ffc9a714610126578063060475901461015657806306fdde0314610174578063081812fc14610192575b600080fd5b610140600480360381019061013b9190612695565b6103f6565b60405161014d9190612dff565b60405180910390f35b61015e6104d8565b60405161016b91906130ba565b60405180910390f35b61017c6104ee565b6040516101899190612e1a565b60405180910390f35b6101ac60048036038101906101a791906126e7565b610580565b6040516101b99190612d6f565b60405180910390f35b6101dc60048036038101906101d79190612659565b610605565b005b6101f860048036038101906101f391906124ee565b61071d565b60405161020591906130ba565b60405180910390f35b61022860048036038101906102239190612553565b610735565b005b610244600480360381019061023f91906126e7565b610795565b6040516102519190612e1a565b60405180910390f35b610274600480360381019061026f9190612553565b6108b3565b005b610290600480360381019061028b91906126e7565b6108d3565b60405161029d9190612d6f565b60405180910390f35b6102c060048036038101906102bb91906124ee565b610985565b6040516102cd91906130ba565b60405180910390f35b6102de610a3d565b6040516102eb9190612e1a565b60405180910390f35b61030e6004803603810190610309919061261d565b610acf565b005b61032a600480360381019061032591906126e7565b610ae5565b6040516103379190612e1a565b60405180910390f35b61035a600480360381019061035591906125a2565b610c03565b005b610376600480360381019061037191906126e7565b610c65565b6040516103839190612e1a565b60405180910390f35b6103a660048036038101906103a191906126e7565b610d83565b6040516103b39190612e1a565b60405180910390f35b6103c4610ed5565b005b6103e060048036038101906103db9190612517565b6111d5565b6040516103ed9190612dff565b60405180910390f35b60007f80ac58cd000000000000000000000000000000000000000000000000000000007bffffffffffffffffffffffffffffffffffffffffffffffffffffffff1916827bffffffffffffffffffffffffffffffffffffffffffffffffffffffff191614806104c157507f5b5e139f000000000000000000000000000000000000000000000000000000007bffffffffffffffffffffffffffffffffffffffffffffffffffffffff1916827bffffffffffffffffffffffffffffffffffffffffffffffffffffffff1916145b806104d157506104d082611302565b5b9050919050565b6000806104e5600761136c565b90508091505090565b6060600080546104fd9061334e565b80601f01602080910402602001604051908101604052809291908181526020018280546105299061334e565b80156105765780601f1061054b57610100808354040283529160200191610576565b820191906000526020600020905b81548152906001019060200180831161055957829003601f168201915b5050505050905090565b600061058b8261137a565b6105ca576040517f08c379a00000000000000000000000000000000000000000000000000000000081526004016105c19061301a565b60405180910390fd5b6004600083815260200190815260200160002060009054906101000a900473ffffffffffffffffffffffffffffffffffffffff169050919050565b6000610610826108d3565b90508073ffffffffffffffffffffffffffffffffffffffff168373ffffffffffffffffffffffffffffffffffffffff161415610681576040517f08c379a00000000000000000000000000000000000000000000000000000000081526004016106789061305a565b60405180910390fd5b8073ffffffffffffffffffffffffffffffffffffffff166106a06113e6565b73ffffffffffffffffffffffffffffffffffffffff1614806106cf57506106ce816106c96113e6565b6111d5565b5b61070e576040517f08c379a000000000000000000000000000000000000000000000000000000000815260040161070590612f5a565b60405180910390fd5b61071883836113ee565b505050565b60086020528060005260406000206000915090505481565b6107466107406113e6565b826114a7565b610785576040517f08c379a000000000000000000000000000000000000000000000000000000000815260040161077c9061307a565b60405180910390fd5b610790838383611585565b505050565b606060006107c96107a5846117ec565b6040516020016107b59190612d2b565b604051602081830303815290604052611999565b9050600a80549050816107dc91906133fa565b9050600a8181548110610818577f4e487b7100000000000000000000000000000000000000000000000000000000600052603260045260246000fd5b90600052602060002001805461082d9061334e565b80601f01602080910402602001604051908101604052809291908181526020018280546108599061334e565b80156108a65780601f1061087b576101008083540402835291602001916108a6565b820191906000526020600020905b81548152906001019060200180831161088957829003601f168201915b5050505050915050919050565b6108ce83838360405180602001604052806000815250610c03565b505050565b6000806002600084815260200190815260200160002060009054906101000a900473ffffffffffffffffffffffffffffffffffffffff169050600073ffffffffffffffffffffffffffffffffffffffff168173ffffffffffffffffffffffffffffffffffffffff16141561097c576040517f08c379a000000000000000000000000000000000000000000000000000000000815260040161097390612f9a565b60405180910390fd5b80915050919050565b60008073ffffffffffffffffffffffffffffffffffffffff168273ffffffffffffffffffffffffffffffffffffffff1614156109f6576040517f08c379a00000000000000000000000000000000000000000000000000000000081526004016109ed90612f7a565b60405180910390fd5b600360008373ffffffffffffffffffffffffffffffffffffffff1673ffffffffffffffffffffffffffffffffffffffff168152602001908152602001600020549050919050565b606060018054610a4c9061334e565b80601f0160208091040260200160405190810160405280929190818152602001828054610a789061334e565b8015610ac55780601f10610a9a57610100808354040283529160200191610ac5565b820191906000526020600020905b815481529060010190602001808311610aa857829003601f168201915b5050505050905090565b610ae1610ada6113e6565b83836119cc565b5050565b60606000610b19610af5846117ec565b604051602001610b059190612cc4565b604051602081830303815290604052611999565b9050600b8054905081610b2c91906133fa565b9050600b8181548110610b68577f4e487b7100000000000000000000000000000000000000000000000000000000600052603260045260246000fd5b906000526020600020018054610b7d9061334e565b80601f0160208091040260200160405190810160405280929190818152602001828054610ba99061334e565b8015610bf65780601f10610bcb57610100808354040283529160200191610bf6565b820191906000526020600020905b815481529060010190602001808311610bd957829003601f168201915b5050505050915050919050565b610c14610c0e6113e6565b836114a7565b610c53576040517f08c379a0000000000000000000000000000000000000000000000000000000008152600401610c4a9061307a565b60405180910390fd5b610c5f84848484611b39565b50505050565b60606000610c99610c75846117ec565b604051602001610c859190612ca2565b604051602081830303815290604052611999565b9050600c8054905081610cac91906133fa565b9050600c8181548110610ce8577f4e487b7100000000000000000000000000000000000000000000000000000000600052603260045260246000fd5b906000526020600020018054610cfd9061334e565b80601f0160208091040260200160405190810160405280929190818152602001828054610d299061334e565b8015610d765780601f10610d4b57610100808354040283529160200191610d76565b820191906000526020600020905b815481529060010190602001808311610d5957829003601f168201915b5050505050915050919050565b6060610d8e8261137a565b610dcd576040517f08c379a0000000000000000000000000000000000000000000000000000000008152600401610dc490612ffa565b60405180910390fd5b6000600660008481526020019081526020016000208054610ded9061334e565b80601f0160208091040260200160405190810160405280929190818152602001828054610e199061334e565b8015610e665780601f10610e3b57610100808354040283529160200191610e66565b820191906000526020600020905b815481529060010190602001808311610e4957829003601f168201915b505050505090506000610e77611b95565b9050600081511415610e8d578192505050610ed0565b600082511115610ec2578082604051602001610eaa929190612c04565b60405160208183030381529060405292505050610ed0565b610ecb84611bac565b925050505b919050565b6000610ee1600761136c565b90506032811115610f27576040517f08c379a0000000000000000000000000000000000000000000000000000000008152600401610f1e90612eda565b60405180910390fd5b426078600860003373ffffffffffffffffffffffffffffffffffffffff1673ffffffffffffffffffffffffffffffffffffffff16815260200190815260200160002054610f749190613183565b10610fb4576040517f08c379a0000000000000000000000000000000000000000000000000000000008152600401610fab9061309a565b60405180910390fd5b42600860003373ffffffffffffffffffffffffffffffffffffffff1673ffffffffffffffffffffffffffffffffffffffff16815260200190815260200160002081905550600061100382610795565b9050600061101083610ae5565b9050600061101d84610c65565b9050600083838360405160200161103693929190612c28565b6040516020818303038152906040529050600060098585856040516020016110619493929190612c59565b604051602081830303815290604052905060006110a68361108184611c53565b604051602001611092929190612ce6565b604051602081830303815290604052611c53565b90506000816040516020016110bb9190612d4d565b604051602081830303815290604052905061110a6040518060400160405280601581526020017f0a2d2d2d2d2d2d2d2d2d2d2d2d2d2d2d2d2d2d2d2d0000000000000000000000815250611269565b61111381611269565b6111516040518060400160405280601581526020017f2d2d2d2d2d2d2d2d2d2d2d2d2d2d2d2d2d2d2d2d0a0000000000000000000000815250611269565b61115b3389611e11565b6111658882611e2f565b61116f6007611ea3565b611192604051806060016040528060258152602001613bdf602591398933611eb9565b7febb98688741ffa4c7589bf325de30cf7becb63de567842e1ccdb6cb949fdc82c33896040516111c3929190612dd6565b60405180910390a15050505050505050565b6000600560008473ffffffffffffffffffffffffffffffffffffffff1673ffffffffffffffffffffffffffffffffffffffff16815260200190815260200160002060008373ffffffffffffffffffffffffffffffffffffffff1673ffffffffffffffffffffffffffffffffffffffff16815260200190815260200160002060009054906101000a900460ff16905092915050565b6112ff8160405160240161127d9190612e1a565b6040516020818303038152906040527f41304fac000000000000000000000000000000000000000000000000000000007bffffffffffffffffffffffffffffffffffffffffffffffffffffffff19166020820180517bffffffffffffffffffffffffffffffffffffffffffffffffffffffff8381831617835250505050611f58565b50565b60007f01ffc9a7000000000000000000000000000000000000000000000000000000007bffffffffffffffffffffffffffffffffffffffffffffffffffffffff1916827bffffffffffffffffffffffffffffffffffffffffffffffffffffffff1916149050919050565b600081600001549050919050565b60008073ffffffffffffffffffffffffffffffffffffffff166002600084815260200190815260200160002060009054906101000a900473ffffffffffffffffffffffffffffffffffffffff1673ffffffffffffffffffffffffffffffffffffffff1614159050919050565b600033905090565b816004600083815260200190815260200160002060006101000a81548173ffffffffffffffffffffffffffffffffffffffff021916908373ffffffffffffffffffffffffffffffffffffffff160217905550808273ffffffffffffffffffffffffffffffffffffffff16611461836108d3565b73ffffffffffffffffffffffffffffffffffffffff167f8c5be1e5ebec7d5bd14f71427d1e84f3dd0314c0f7b2291e5b200ac8c7c3b92560405160405180910390a45050565b60006114b28261137a565b6114f1576040517f08c379a00000000000000000000000000000000000000000000000000000000081526004016114e890612f3a565b60405180910390fd5b60006114fc836108d3565b90508073ffffffffffffffffffffffffffffffffffffffff168473ffffffffffffffffffffffffffffffffffffffff16148061156b57508373ffffffffffffffffffffffffffffffffffffffff1661155384610580565b73ffffffffffffffffffffffffffffffffffffffff16145b8061157c575061157b81856111d5565b5b91505092915050565b8273ffffffffffffffffffffffffffffffffffffffff166115a5826108d3565b73ffffffffffffffffffffffffffffffffffffffff16146115fb576040517f08c379a00000000000000000000000000000000000000000000000000000000081526004016115f290612e9a565b60405180910390fd5b600073ffffffffffffffffffffffffffffffffffffffff168273ffffffffffffffffffffffffffffffffffffffff16141561166b576040517f08c379a000000000000000000000000000000000000000000000000000000000815260040161166290612efa565b60405180910390fd5b611676838383611f81565b6116816000826113ee565b6001600360008573ffffffffffffffffffffffffffffffffffffffff1673ffffffffffffffffffffffffffffffffffffffff16815260200190815260200160002060008282546116d19190613264565b925050819055506001600360008473ffffffffffffffffffffffffffffffffffffffff1673ffffffffffffffffffffffffffffffffffffffff16815260200190815260200160002060008282546117289190613183565b92505081905550816002600083815260200190815260200160002060006101000a81548173ffffffffffffffffffffffffffffffffffffffff021916908373ffffffffffffffffffffffffffffffffffffffff160217905550808273ffffffffffffffffffffffffffffffffffffffff168473ffffffffffffffffffffffffffffffffffffffff167fddf252ad1be2c89b69c2b068fc378daa952ba7f163c4a11628f55a4df523b3ef60405160405180910390a46117e7838383611f86565b505050565b60606000821415611834576040518060400160405280600181526020017f30000000000000000000000000000000000000000000000000000000000000008152509050611994565b600082905060005b6000821461186657808061184f906133b1565b915050600a8261185f91906131d9565b915061183c565b60008167ffffffffffffffff8111156118a8577f4e487b7100000000000000000000000000000000000000000000000000000000600052604160045260246000fd5b6040519080825280601f01601f1916602001820160405280156118da5781602001600182028036833780820191505090505b5090505b6000851461198d576001826118f39190613264565b9150600a8561190291906133fa565b603061190e9190613183565b60f81b81838151811061194a577f4e487b7100000000000000000000000000000000000000000000000000000000600052603260045260246000fd5b60200101907effffffffffffffffffffffffffffffffffffffffffffffffffffffffffffff1916908160001a905350600a8561198691906131d9565b94506118de565b8093505050505b919050565b6000816040516020016119ac9190612bed565b6040516020818303038152906040528051906020012060001c9050919050565b8173ffffffffffffffffffffffffffffffffffffffff168373ffffffffffffffffffffffffffffffffffffffff161415611a3b576040517f08c379a0000000000000000000000000000000000000000000000000000000008152600401611a3290612f1a565b60405180910390fd5b80600560008573ffffffffffffffffffffffffffffffffffffffff1673ffffffffffffffffffffffffffffffffffffffff16815260200190815260200160002060008473ffffffffffffffffffffffffffffffffffffffff1673ffffffffffffffffffffffffffffffffffffffff16815260200190815260200160002060006101000a81548160ff0219169083151502179055508173ffffffffffffffffffffffffffffffffffffffff168373ffffffffffffffffffffffffffffffffffffffff167f17307eab39ab6107e8899845ad3d59bd9653f200f220920489ca2b5937696c3183604051611b2c9190612dff565b60405180910390a3505050565b611b44848484611585565b611b5084848484611f8b565b611b8f576040517f08c379a0000000000000000000000000000000000000000000000000000000008152600401611b8690612e7a565b60405180910390fd5b50505050565b606060405180602001604052806000815250905090565b6060611bb78261137a565b611bf6576040517f08c379a0000000000000000000000000000000000000000000000000000000008152600401611bed9061303a565b60405180910390fd5b6000611c00611b95565b90506000815111611c205760405180602001604052806000815250611c4b565b80611c2a846117ec565b604051602001611c3b929190612c04565b6040516020818303038152906040525b915050919050565b60606000825190506000811415611c7c5760405180602001604052806000815250915050611e0c565b60006003600283611c8d9190613183565b611c9791906131d9565b6004611ca3919061320a565b90506000602082611cb49190613183565b67ffffffffffffffff811115611cf3577f4e487b7100000000000000000000000000000000000000000000000000000000600052604160045260246000fd5b6040519080825280601f01601f191660200182016040528015611d255781602001600182028036833780820191505090505b5090506000604051806060016040528060408152602001613c04604091399050600181016020830160005b86811015611dc95760038101905062ffffff818a015116603f8160121c168401518060081b905060ff603f83600c1c1686015116810190508060081b905060ff603f8360061c1686015116810190508060081b905060ff603f831686015116810190508060e01b90508084526004840193505050611d50565b506003860660018114611de35760028114611df357611dfe565b613d3d60f01b6002830352611dfe565b603d60f81b60018303525b508484525050819450505050505b919050565b611e2b828260405180602001604052806000815250612122565b5050565b611e388261137a565b611e77576040517f08c379a0000000000000000000000000000000000000000000000000000000008152600401611e6e90612fba565b60405180910390fd5b80600660008481526020019081526020016000209080519060200190611e9e92919061237a565b505050565b6001816000016000828254019250508190555050565b611f53838383604051602401611ed193929190612e3c565b6040516020818303038152906040527fe3849f79000000000000000000000000000000000000000000000000000000007bffffffffffffffffffffffffffffffffffffffffffffffffffffffff19166020820180517bffffffffffffffffffffffffffffffffffffffffffffffffffffffff8381831617835250505050611f58565b505050565b60008151905060006a636f6e736f6c652e6c6f679050602083016000808483855afa5050505050565b505050565b505050565b6000611fac8473ffffffffffffffffffffffffffffffffffffffff1661217d565b15612115578373ffffffffffffffffffffffffffffffffffffffff1663150b7a02611fd56113e6565b8786866040518563ffffffff1660e01b8152600401611ff79493929190612d8a565b602060405180830381600087803b15801561201157600080fd5b505af192505050801561204257506040513d601f19601f8201168201806040525081019061203f91906126be565b60015b6120c5573d8060008114612072576040519150601f19603f3d011682016040523d82523d6000602084013e612077565b606091505b506000815114156120bd576040517f08c379a00000000000000000000000000000000000000000000000000000000081526004016120b490612e7a565b60405180910390fd5b805181602001fd5b63150b7a0260e01b7bffffffffffffffffffffffffffffffffffffffffffffffffffffffff1916817bffffffffffffffffffffffffffffffffffffffffffffffffffffffff19161491505061211a565b600190505b949350505050565b61212c83836121a0565b6121396000848484611f8b565b612178576040517f08c379a000000000000000000000000000000000000000000000000000000000815260040161216f90612e7a565b60405180910390fd5b505050565b6000808273ffffffffffffffffffffffffffffffffffffffff163b119050919050565b600073ffffffffffffffffffffffffffffffffffffffff168273ffffffffffffffffffffffffffffffffffffffff161415612210576040517f08c379a000000000000000000000000000000000000000000000000000000000815260040161220790612fda565b60405180910390fd5b6122198161137a565b15612259576040517f08c379a000000000000000000000000000000000000000000000000000000000815260040161225090612eba565b60405180910390fd5b61226560008383611f81565b6001600360008473ffffffffffffffffffffffffffffffffffffffff1673ffffffffffffffffffffffffffffffffffffffff16815260200190815260200160002060008282546122b59190613183565b92505081905550816002600083815260200190815260200160002060006101000a81548173ffffffffffffffffffffffffffffffffffffffff021916908373ffffffffffffffffffffffffffffffffffffffff160217905550808273ffffffffffffffffffffffffffffffffffffffff16600073ffffffffffffffffffffffffffffffffffffffff167fddf252ad1be2c89b69c2b068fc378daa952ba7f163c4a11628f55a4df523b3ef60405160405180910390a461237660008383611f86565b5050565b8280546123869061334e565b90600052602060002090601f0160209004810192826123a857600085556123ef565b82601f106123c157805160ff19168380011785556123ef565b828001600101855582156123ef579182015b828111156123ee5782518255916020019190600101906123d3565b5b5090506123fc9190612400565b5090565b5b80821115612419576000816000905550600101612401565b5090565b600061243061242b846130fa565b6130d5565b90508281526020810184848401111561244857600080fd5b61245384828561330c565b509392505050565b60008135905061246a81613b82565b92915050565b60008135905061247f81613b99565b92915050565b60008135905061249481613bb0565b92915050565b6000815190506124a981613bb0565b92915050565b600082601f8301126124c057600080fd5b81356124d084826020860161241d565b91505092915050565b6000813590506124e881613bc7565b92915050565b60006020828403121561250057600080fd5b600061250e8482850161245b565b91505092915050565b6000806040838503121561252a57600080fd5b60006125388582860161245b565b92505060206125498582860161245b565b9150509250929050565b60008060006060848603121561256857600080fd5b60006125768682870161245b565b93505060206125878682870161245b565b9250506040612598868287016124d9565b9150509250925092565b600080600080608085870312156125b857600080fd5b60006125c68782880161245b565b94505060206125d78782880161245b565b93505060406125e8878288016124d9565b925050606085013567ffffffffffffffff81111561260557600080fd5b612611878288016124af565b91505092959194509250565b6000806040838503121561263057600080fd5b600061263e8582860161245b565b925050602061264f85828601612470565b9150509250929050565b6000806040838503121561266c57600080fd5b600061267a8582860161245b565b925050602061268b858286016124d9565b9150509250929050565b6000602082840312156126a757600080fd5b60006126b584828501612485565b91505092915050565b6000602082840312156126d057600080fd5b60006126de8482850161249a565b91505092915050565b6000602082840312156126f957600080fd5b6000612707848285016124d9565b91505092915050565b61271981613298565b82525050565b612728816132aa565b82525050565b600061273982613140565b6127438185613156565b935061275381856020860161331b565b61275c816134e7565b840191505092915050565b60006127728261314b565b61277c8185613167565b935061278c81856020860161331b565b612795816134e7565b840191505092915050565b60006127ab8261314b565b6127b58185613178565b93506127c581856020860161331b565b80840191505092915050565b600081546127de8161334e565b6127e88186613178565b94506001821660008114612803576001811461281457612847565b60ff19831686528186019350612847565b61281d8561312b565b60005b8381101561283f57815481890152600182019150602081019050612820565b838801955050505b50505092915050565b600061285d603283613167565b9150612868826134f8565b604082019050919050565b6000612880602583613167565b915061288b82613547565b604082019050919050565b60006128a3601c83613167565b91506128ae82613596565b602082019050919050565b60006128c6600a83613178565b91506128d1826135bf565b600a82019050919050565b60006128e9601d83613167565b91506128f4826135e8565b602082019050919050565b600061290c602483613167565b915061291782613611565b604082019050919050565b600061292f601983613167565b915061293a82613660565b602082019050919050565b6000612952606383613178565b915061295d82613689565b606382019050919050565b6000612975600b83613178565b915061298082613724565b600b82019050919050565b6000612998602c83613167565b91506129a38261374d565b604082019050919050565b60006129bb600d83613178565b91506129c68261379c565b600d82019050919050565b60006129de603883613167565b91506129e9826137c5565b604082019050919050565b6000612a01602a83613167565b9150612a0c82613814565b604082019050919050565b6000612a24602983613167565b9150612a2f82613863565b604082019050919050565b6000612a47602e83613167565b9150612a52826138b2565b604082019050919050565b6000612a6a600283613178565b9150612a7582613901565b600282019050919050565b6000612a8d602083613167565b9150612a988261392a565b602082019050919050565b6000612ab0603183613167565b9150612abb82613953565b604082019050919050565b6000612ad3602c83613167565b9150612ade826139a2565b604082019050919050565b6000612af6602f83613167565b9150612b01826139f1565b604082019050919050565b6000612b19600a83613178565b9150612b2482613a40565b600a82019050919050565b6000612b3c602183613167565b9150612b4782613a69565b604082019050919050565b6000612b5f600a83613178565b9150612b6a82613ab8565b600a82019050919050565b6000612b82601d83613178565b9150612b8d82613ae1565b601d82019050919050565b6000612ba5603183613167565b9150612bb082613b0a565b604082019050919050565b6000612bc8600e83613167565b9150612bd382613b59565b602082019050919050565b612be781613302565b82525050565b6000612bf982846127a0565b915081905092915050565b6000612c1082856127a0565b9150612c1c82846127a0565b91508190509392505050565b6000612c3482866127a0565b9150612c4082856127a0565b9150612c4c82846127a0565b9150819050949350505050565b6000612c6582876127d1565b9150612c7182866127a0565b9150612c7d82856127a0565b9150612c8982846127a0565b9150612c94826129ae565b915081905095945050505050565b6000612cad826128b9565b9150612cb982846127a0565b915081905092915050565b6000612ccf82612968565b9150612cdb82846127a0565b915081905092915050565b6000612cf182612b0c565b9150612cfd82856127a0565b9150612d0882612945565b9150612d1482846127a0565b9150612d1f82612a5d565b91508190509392505050565b6000612d3682612b52565b9150612d4282846127a0565b915081905092915050565b6000612d5882612b75565b9150612d6482846127a0565b915081905092915050565b6000602082019050612d846000830184612710565b92915050565b6000608082019050612d9f6000830187612710565b612dac6020830186612710565b612db96040830185612bde565b8181036060830152612dcb818461272e565b905095945050505050565b6000604082019050612deb6000830185612710565b612df86020830184612bde565b9392505050565b6000602082019050612e14600083018461271f565b92915050565b60006020820190508181036000830152612e348184612767565b905092915050565b60006060820190508181036000830152612e568186612767565b9050612e656020830185612bde565b612e726040830184612710565b949350505050565b60006020820190508181036000830152612e9381612850565b9050919050565b60006020820190508181036000830152612eb381612873565b9050919050565b60006020820190508181036000830152612ed381612896565b9050919050565b60006020820190508181036000830152612ef3816128dc565b9050919050565b60006020820190508181036000830152612f13816128ff565b9050919050565b60006020820190508181036000830152612f3381612922565b9050919050565b60006020820190508181036000830152612f538161298b565b9050919050565b60006020820190508181036000830152612f73816129d1565b9050919050565b60006020820190508181036000830152612f93816129f4565b9050919050565b60006020820190508181036000830152612fb381612a17565b9050919050565b60006020820190508181036000830152612fd381612a3a565b9050919050565b60006020820190508181036000830152612ff381612a80565b9050919050565b6000602082019050818103600083015261301381612aa3565b9050919050565b6000602082019050818103600083015261303381612ac6565b9050919050565b6000602082019050818103600083015261305381612ae9565b9050919050565b6000602082019050818103600083015261307381612b2f565b9050919050565b6000602082019050818103600083015261309381612b98565b9050919050565b600060208201905081810360008301526130b381612bbb565b9050919050565b60006020820190506130cf6000830184612bde565b92915050565b60006130df6130f0565b90506130eb8282613380565b919050565b6000604051905090565b600067ffffffffffffffff821115613115576131146134b8565b5b61311e826134e7565b9050602081019050919050565b60008190508160005260206000209050919050565b600081519050919050565b600081519050919050565b600082825260208201905092915050565b600082825260208201905092915050565b600081905092915050565b600061318e82613302565b915061319983613302565b9250827fffffffffffffffffffffffffffffffffffffffffffffffffffffffffffffffff038211156131ce576131cd61342b565b5b828201905092915050565b60006131e482613302565b91506131ef83613302565b9250826131ff576131fe61345a565b5b828204905092915050565b600061321582613302565b915061322083613302565b9250817fffffffffffffffffffffffffffffffffffffffffffffffffffffffffffffffff04831182151516156132595761325861342b565b5b828202905092915050565b600061326f82613302565b915061327a83613302565b92508282101561328d5761328c61342b565b5b828203905092915050565b60006132a3826132e2565b9050919050565b60008115159050919050565b60007fffffffff0000000000000000000000000000000000000000000000000000000082169050919050565b600073ffffffffffffffffffffffffffffffffffffffff82169050919050565b6000819050919050565b82818337600083830152505050565b60005b8381101561333957808201518184015260208101905061331e565b83811115613348576000848401525b50505050565b6000600282049050600182168061336657607f821691505b6020821081141561337a57613379613489565b5b50919050565b613389826134e7565b810181811067ffffffffffffffff821117156133a8576133a76134b8565b5b80604052505050565b60006133bc82613302565b91507fffffffffffffffffffffffffffffffffffffffffffffffffffffffffffffffff8214156133ef576133ee61342b565b5b600182019050919050565b600061340582613302565b915061341083613302565b9250826134205761341f61345a565b5b828206905092915050565b7f4e487b7100000000000000000000000000000000000000000000000000000000600052601160045260246000fd5b7f4e487b7100000000000000000000000000000000000000000000000000000000600052601260045260246000fd5b7f4e487b7100000000000000000000000000000000000000000000000000000000600052602260045260246000fd5b7f4e487b7100000000000000000000000000000000000000000000000000000000600052604160045260246000fd5b6000601f19601f8301169050919050565b7f4552433732313a207472616e7366657220746f206e6f6e20455243373231526560008201527f63656976657220696d706c656d656e7465720000000000000000000000000000602082015250565b7f4552433732313a207472616e736665722066726f6d20696e636f72726563742060008201527f6f776e6572000000000000000000000000000000000000000000000000000000602082015250565b7f4552433732313a20746f6b656e20616c7265616479206d696e74656400000000600082015250565b7f54484952445f574f524400000000000000000000000000000000000000000000600082015250565b7f4c696d6974205265616368656420666f72204e465473204d696e746564000000600082015250565b7f4552433732313a207472616e7366657220746f20746865207a65726f2061646460008201527f7265737300000000000000000000000000000000000000000000000000000000602082015250565b7f4552433732313a20617070726f766520746f2063616c6c657200000000000000600082015250565b7f222c20226465736372697074696f6e223a20224120686967686c79206163636c60008201527f61696d656420636f6c6c656374696f6e206f6620737175617265732e222c202260208201527f696d616765223a2022646174613a696d6167652f7376672b786d6c3b6261736560408201527f36342c0000000000000000000000000000000000000000000000000000000000606082015250565b7f5345434f4e445f574f5244000000000000000000000000000000000000000000600082015250565b7f4552433732313a206f70657261746f7220717565727920666f72206e6f6e657860008201527f697374656e7420746f6b656e0000000000000000000000000000000000000000602082015250565b7f3c2f746578743e3c2f7376673e00000000000000000000000000000000000000600082015250565b7f4552433732313a20617070726f76652063616c6c6572206973206e6f74206f7760008201527f6e6572206e6f7220617070726f76656420666f7220616c6c0000000000000000602082015250565b7f4552433732313a2062616c616e636520717565727920666f7220746865207a6560008201527f726f206164647265737300000000000000000000000000000000000000000000602082015250565b7f4552433732313a206f776e657220717565727920666f72206e6f6e657869737460008201527f656e7420746f6b656e0000000000000000000000000000000000000000000000602082015250565b7f45524337323155524953746f726167653a2055524920736574206f66206e6f6e60008201527f6578697374656e7420746f6b656e000000000000000000000000000000000000602082015250565b7f227d000000000000000000000000000000000000000000000000000000000000600082015250565b7f4552433732313a206d696e7420746f20746865207a65726f2061646472657373600082015250565b7f45524337323155524953746f726167653a2055524920717565727920666f722060008201527f6e6f6e6578697374656e7420746f6b656e000000000000000000000000000000602082015250565b7f4552433732313a20617070726f76656420717565727920666f72206e6f6e657860008201527f697374656e7420746f6b656e0000000000000000000000000000000000000000602082015250565b7f4552433732314d657461646174613a2055524920717565727920666f72206e6f60008201527f6e6578697374656e7420746f6b656e0000000000000000000000000000000000602082015250565b7f7b226e616d65223a202200000000000000000000000000000000000000000000600082015250565b7f4552433732313a20617070726f76616c20746f2063757272656e74206f776e6560008201527f7200000000000000000000000000000000000000000000000000000000000000602082015250565b7f46495253545f574f524400000000000000000000000000000000000000000000600082015250565b7f646174613a6170706c69636174696f6e2f6a736f6e3b6261736536342c000000600082015250565b7f4552433732313a207472616e736665722063616c6c6572206973206e6f74206f60008201527f776e6572206e6f7220617070726f766564000000000000000000000000000000602082015250565b7f576169742032206d696e75746573000000000000000000000000000000000000600082015250565b613b8b81613298565b8114613b9657600080fd5b50565b613ba2816132aa565b8114613bad57600080fd5b50565b613bb9816132b6565b8114613bc457600080fd5b50565b613bd081613302565b8114613bdb57600080fd5b5056fe416e204e465420772f20494420257320686173206265656e206d696e74656420746f2025734142434445464748494a4b4c4d4e4f505152535455565758595a6162636465666768696a6b6c6d6e6f707172737475767778797a303132333435363738392b2fa264697066735822122063fb63c9bf9a769da0da796f2faf0e57febe6964afdb6fd2319489737f0295a264736f6c634300080100333c73766720786d6c6e733d27687474703a2f2f7777772e77332e6f72672f323030302f73766727207072657365727665417370656374526174696f3d27784d696e594d696e206d656574272076696577426f783d273020302033353020333530273e3c7374796c653e2e62617365207b2066696c6c3a2077686974653b20666f6e742d66616d696c793a2073657269663b20666f6e742d73697a653a20323470783b207d3c2f7374796c653e3c726563742077696474683d273130302527206865696768743d2731303025272066696c6c3d27626c61636b27202f3e3c7465787420783d273530252720793d273530252720636c6173733d27626173652720646f6d696e616e742d626173656c696e653d276d6964646c652720746578742d616e63686f723d276d6964646c65273e",
  "linkReferences": {},
  "deployedLinkReferences": {}
}